{
  "contractName": "Auction",
  "abi": [
    {
      "constant": true,
      "inputs": [],
      "name": "ended",
      "outputs": [
        {
          "name": "",
          "type": "bool"
        }
      ],
      "payable": false,
      "stateMutability": "view",
      "type": "function"
    },
    {
      "constant": true,
      "inputs": [],
      "name": "itemName",
      "outputs": [
        {
          "name": "",
          "type": "string"
        }
      ],
      "payable": false,
      "stateMutability": "view",
      "type": "function"
    },
    {
      "constant": true,
      "inputs": [],
      "name": "auctionEndTime",
      "outputs": [
        {
          "name": "",
          "type": "uint256"
        }
      ],
      "payable": false,
      "stateMutability": "view",
      "type": "function"
    },
    {
      "constant": true,
      "inputs": [],
      "name": "buyPrice",
      "outputs": [
        {
          "name": "",
          "type": "uint256"
        }
      ],
      "payable": false,
      "stateMutability": "view",
      "type": "function"
    },
    {
      "constant": true,
      "inputs": [],
      "name": "owner",
      "outputs": [
        {
          "name": "",
          "type": "address"
        }
      ],
      "payable": false,
      "stateMutability": "view",
      "type": "function"
    },
    {
      "constant": true,
      "inputs": [],
      "name": "highestBidder",
      "outputs": [
        {
          "name": "",
          "type": "address"
        }
      ],
      "payable": false,
      "stateMutability": "view",
      "type": "function"
    },
    {
      "constant": true,
      "inputs": [],
      "name": "bidCount",
      "outputs": [
        {
          "name": "",
          "type": "uint256"
        }
      ],
      "payable": false,
      "stateMutability": "view",
      "type": "function"
    },
    {
      "constant": true,
      "inputs": [],
      "name": "condition",
      "outputs": [
        {
          "name": "",
          "type": "uint8"
        }
      ],
      "payable": false,
      "stateMutability": "view",
      "type": "function"
    },
    {
      "constant": true,
      "inputs": [],
      "name": "highestBid",
      "outputs": [
        {
          "name": "",
          "type": "uint256"
        }
      ],
      "payable": false,
      "stateMutability": "view",
      "type": "function"
    },
    {
      "constant": true,
      "inputs": [],
      "name": "startPrice",
      "outputs": [
        {
          "name": "",
          "type": "uint256"
        }
      ],
      "payable": false,
      "stateMutability": "view",
      "type": "function"
    },
    {
      "constant": true,
      "inputs": [
        {
          "name": "",
          "type": "address"
        }
      ],
      "name": "pendingWithdrawals",
      "outputs": [
        {
          "name": "",
          "type": "uint256"
        }
      ],
      "payable": false,
      "stateMutability": "view",
      "type": "function"
    },
    {
      "inputs": [
        {
          "name": "_itemName",
          "type": "string"
        },
        {
          "name": "_condition",
          "type": "uint8"
        },
        {
          "name": "_durationMinutes",
          "type": "uint256"
        },
        {
          "name": "_startPrice",
          "type": "uint256"
        },
        {
          "name": "_buyPrice",
          "type": "uint256"
        }
      ],
      "payable": false,
      "stateMutability": "nonpayable",
      "type": "constructor"
    },
    {
      "anonymous": false,
      "inputs": [
        {
          "indexed": false,
          "name": "bidItem",
          "type": "string"
        }
      ],
      "name": "AuctionStarted",
      "type": "event"
    },
    {
      "anonymous": false,
      "inputs": [
        {
          "indexed": false,
          "name": "winner",
          "type": "address"
        },
        {
          "indexed": false,
          "name": "winningAmount",
          "type": "uint256"
        }
      ],
      "name": "AuctionEnded",
      "type": "event"
    },
    {
      "anonymous": false,
      "inputs": [
        {
          "indexed": false,
          "name": "bidder",
          "type": "address"
        },
        {
          "indexed": false,
          "name": "bidAmount",
          "type": "uint256"
        }
      ],
      "name": "HighestBidIncreased",
      "type": "event"
    },
    {
      "anonymous": false,
      "inputs": [],
      "name": "AuctionCancelled",
      "type": "event"
    },
    {
      "anonymous": false,
      "inputs": [
        {
          "indexed": false,
          "name": "message",
          "type": "string"
        },
        {
          "indexed": false,
          "name": "withdrawAccount",
          "type": "address"
        },
        {
          "indexed": false,
          "name": "withdrawAmount",
          "type": "uint256"
        }
      ],
      "name": "Withdrawal",
      "type": "event"
    },
    {
      "constant": false,
      "inputs": [],
      "name": "placeBid",
      "outputs": [],
      "payable": true,
      "stateMutability": "payable",
      "type": "function"
    },
    {
      "constant": false,
      "inputs": [],
      "name": "endAuction",
      "outputs": [],
      "payable": false,
      "stateMutability": "nonpayable",
      "type": "function"
    },
    {
      "constant": false,
      "inputs": [],
      "name": "cancelAuction",
      "outputs": [],
      "payable": false,
      "stateMutability": "nonpayable",
      "type": "function"
    },
    {
      "constant": false,
      "inputs": [],
      "name": "withdraw",
      "outputs": [
        {
          "name": "",
          "type": "bool"
        }
      ],
      "payable": false,
      "stateMutability": "nonpayable",
      "type": "function"
    },
    {
      "constant": true,
      "inputs": [],
      "name": "timeRemaining",
      "outputs": [
        {
          "name": "",
          "type": "uint256"
        }
      ],
      "payable": false,
      "stateMutability": "view",
      "type": "function"
    }
  ],
  "bytecode": "0x60806040523480156200001157600080fd5b506040516200196b3803806200196b8339810180604052810190808051820192919060200180519060200190929190805190602001909291908051906020019092919080519060200190929190505050600083111515620000da576040517f08c379a00000000000000000000000000000000000000000000000000000000081526004018080602001828103825260198152602001807f4475726174696f6e206d7573742062652061626f766520302e0000000000000081525060200191505060405180910390fd5b60008210158015620000ec5750600081115b151562000187576040517f08c379a00000000000000000000000000000000000000000000000000000000081526004018080602001828103825260248152602001807f537461727420616e6420627579207072696365206d7573742062652061626f7681526020017f6520302e0000000000000000000000000000000000000000000000000000000081525060400191505060405180910390fd5b808210151562000225576040517f08c379a000000000000000000000000000000000000000000000000000000000815260040180806020018281038252602e8152602001807f427579207072696365206d75737420626520686967686572207468616e20746881526020017f652073746172742070726963652e00000000000000000000000000000000000081525060400191505060405180910390fd5b336000806101000a81548173ffffffffffffffffffffffffffffffffffffffff021916908373ffffffffffffffffffffffffffffffffffffffff16021790555084600190805190602001906200027d92919062000385565b5083600260006101000a81548160ff021916908360048111156200029d57fe5b02179055508160048190555080600581905550603c830242016003819055507f50aa32fed87143a12f31f64ad9199a4cdc7b35635008b92f753d4c66dafdb423600160405180806020018281038252838181546001816001161561010002031660029004815260200191508054600181600116156101000203166002900480156200036c5780601f1062000340576101008083540402835291602001916200036c565b820191906000526020600020905b8154815290600101906020018083116200034e57829003601f168201915b50509250505060405180910390a1505050505062000434565b828054600181600116156101000203166002900490600052602060002090601f016020900481019282601f10620003c857805160ff1916838001178555620003f9565b82800160010185558215620003f9579182015b82811115620003f8578251825591602001919060010190620003db565b5b5090506200040891906200040c565b5090565b6200043191905b808211156200042d57600081600090555060010162000413565b5090565b90565b61152780620004446000396000f3006080604052600436106100e6576000357c0100000000000000000000000000000000000000000000000000000000900463ffffffff16806312fa6feb146100eb5780633ccfd60b1461011a57806340401fea146101495780634b449cba146101d95780638620410b146102045780638da5cb5b1461022f5780638fa8b7901461028657806391f901571461029d578063b40a5627146102f4578063c50313311461031f578063d57bde7914610358578063e3cfef6014610383578063ecfc7ecc146103ae578063f1a9af89146103b8578063f3f43703146103e3578063fe67a54b1461043a575b600080fd5b3480156100f757600080fd5b50610100610451565b604051808215151515815260200191505060405180910390f35b34801561012657600080fd5b5061012f610464565b604051808215151515815260200191505060405180910390f35b34801561015557600080fd5b5061015e6106d1565b6040518080602001828103825283818151815260200191508051906020019080838360005b8381101561019e578082015181840152602081019050610183565b50505050905090810190601f1680156101cb5780820380516001836020036101000a031916815260200191505b509250505060405180910390f35b3480156101e557600080fd5b506101ee61076f565b6040518082815260200191505060405180910390f35b34801561021057600080fd5b50610219610775565b6040518082815260200191505060405180910390f35b34801561023b57600080fd5b5061024461077b565b604051808273ffffffffffffffffffffffffffffffffffffffff1673ffffffffffffffffffffffffffffffffffffffff16815260200191505060405180910390f35b34801561029257600080fd5b5061029b6107a0565b005b3480156102a957600080fd5b506102b2610a43565b604051808273ffffffffffffffffffffffffffffffffffffffff1673ffffffffffffffffffffffffffffffffffffffff16815260200191505060405180910390f35b34801561030057600080fd5b50610309610a69565b6040518082815260200191505060405180910390f35b34801561032b57600080fd5b50610334610a6f565b6040518082600481111561034457fe5b60ff16815260200191505060405180910390f35b34801561036457600080fd5b5061036d610a82565b6040518082815260200191505060405180910390f35b34801561038f57600080fd5b50610398610a88565b6040518082815260200191505060405180910390f35b6103b6610bb8565b005b3480156103c457600080fd5b506103cd61111b565b6040518082815260200191505060405180910390f35b3480156103ef57600080fd5b50610424600480360381019080803573ffffffffffffffffffffffffffffffffffffffff169060200190929190505050611121565b6040518082815260200191505060405180910390f35b34801561044657600080fd5b5061044f611139565b005b600960009054906101000a900460ff1681565b600080600a60003373ffffffffffffffffffffffffffffffffffffffff1673ffffffffffffffffffffffffffffffffffffffff1681526020019081526020016000205490506000811115610624576000600a60003373ffffffffffffffffffffffffffffffffffffffff1673ffffffffffffffffffffffffffffffffffffffff168152602001908152602001600020819055503373ffffffffffffffffffffffffffffffffffffffff166108fc829081150290604051600060405180830381858888f1935050505015156106235780600a60003373ffffffffffffffffffffffffffffffffffffffff1673ffffffffffffffffffffffffffffffffffffffff168152602001908152602001600020819055507fd0cfd60d55acd3226ac0fafab52ad35f0ab2fb6eedb946f7d8405108d71df46d338260405180806020018473ffffffffffffffffffffffffffffffffffffffff1673ffffffffffffffffffffffffffffffffffffffff168152602001838152602001828103825260068152602001807f4661696c65640000000000000000000000000000000000000000000000000000815250602001935050505060405180910390a1600091506106cd565b5b7fd0cfd60d55acd3226ac0fafab52ad35f0ab2fb6eedb946f7d8405108d71df46d338260405180806020018473ffffffffffffffffffffffffffffffffffffffff1673ffffffffffffffffffffffffffffffffffffffff168152602001838152602001828103825260098152602001807f436f6d706c657465640000000000000000000000000000000000000000000000815250602001935050505060405180910390a1600191505b5090565b60018054600181600116156101000203166002900480601f0160208091040260200160405190810160405280929190818152602001828054600181600116156101000203166002900480156107675780601f1061073c57610100808354040283529160200191610767565b820191906000526020600020905b81548152906001019060200180831161074a57829003601f168201915b505050505081565b60035481565b60055481565b6000809054906101000a900473ffffffffffffffffffffffffffffffffffffffff1681565b6000809054906101000a900473ffffffffffffffffffffffffffffffffffffffff1673ffffffffffffffffffffffffffffffffffffffff163373ffffffffffffffffffffffffffffffffffffffff161415156107fb57600080fd5b600960009054906101000a900460ff16151515610880576040517f08c379a000000000000000000000000000000000000000000000000000000000815260040180806020018281038252601a8152602001807f41756374696f6e2068617320616c726561647920656e6465642e00000000000081525060200191505060405180910390fd5b6003544210151561091f576040517f08c379a000000000000000000000000000000000000000000000000000000000815260040180806020018281038252602a8152602001807f41756374696f6e20656e642074696d652068617320616c72656164792062656581526020017f6e20726561636865642e0000000000000000000000000000000000000000000081525060400191505060405180910390fd5b610995600854600a6000600760009054906101000a900473ffffffffffffffffffffffffffffffffffffffff1673ffffffffffffffffffffffffffffffffffffffff1673ffffffffffffffffffffffffffffffffffffffff168152602001908152602001600020546113cc90919063ffffffff16565b600a6000600760009054906101000a900473ffffffffffffffffffffffffffffffffffffffff1673ffffffffffffffffffffffffffffffffffffffff1673ffffffffffffffffffffffffffffffffffffffff168152602001908152602001600020819055506001600960006101000a81548160ff0219169083151502179055507fa5fb31e47bd1eca58bf14a3312d5e6aeafdc4ee787c8ed348c15c2b092324d9360405160405180910390a1565b600760009054906101000a900473ffffffffffffffffffffffffffffffffffffffff1681565b60065481565b600260009054906101000a900460ff1681565b60085481565b6000600960009054906101000a900460ff16151515610b0f576040517f08c379a000000000000000000000000000000000000000000000000000000000815260040180806020018281038252601a8152602001807f41756374696f6e2068617320616c726561647920656e6465642e00000000000081525060200191505060405180910390fd5b60035442101515610bae576040517f08c379a000000000000000000000000000000000000000000000000000000000815260040180806020018281038252602a8152602001807f41756374696f6e20656e642074696d652068617320616c72656164792062656581526020017f6e20726561636865642e0000000000000000000000000000000000000000000081525060400191505060405180910390fd5b4260035403905090565b600960009054906101000a900460ff16151515610c3d576040517f08c379a000000000000000000000000000000000000000000000000000000000815260040180806020018281038252601a8152602001807f41756374696f6e2068617320616c726561647920656e6465642e00000000000081525060200191505060405180910390fd5b60035442101515610cdc576040517f08c379a000000000000000000000000000000000000000000000000000000000815260040180806020018281038252602a8152602001807f41756374696f6e20656e642074696d652068617320616c72656164792062656581526020017f6e20726561636865642e0000000000000000000000000000000000000000000081525060400191505060405180910390fd5b6000809054906101000a900473ffffffffffffffffffffffffffffffffffffffff1673ffffffffffffffffffffffffffffffffffffffff163373ffffffffffffffffffffffffffffffffffffffff1614151515610dc7576040517f08c379a00000000000000000000000000000000000000000000000000000000081526004018080602001828103825260298152602001807f42696464696e67206f6e20796f7572206f776e206974656d73206973204e4f5481526020017f20616c6c6f7765642e000000000000000000000000000000000000000000000081525060400191505060405180910390fd5b6004543410158015610dda575060085434115b1515610e4e576040517f08c379a00000000000000000000000000000000000000000000000000000000081526004018080602001828103825260158152602001807f42696420707269636520697320746f6f206c6f772e000000000000000000000081525060200191505060405180910390fd5b6006600081548092919060010191905055506000600854141515610f4857610ee2600854600a6000600760009054906101000a900473ffffffffffffffffffffffffffffffffffffffff1673ffffffffffffffffffffffffffffffffffffffff1673ffffffffffffffffffffffffffffffffffffffff168152602001908152602001600020546113cc90919063ffffffff16565b600a6000600760009054906101000a900473ffffffffffffffffffffffffffffffffffffffff1673ffffffffffffffffffffffffffffffffffffffff1673ffffffffffffffffffffffffffffffffffffffff168152602001908152602001600020819055505b33600760006101000a81548173ffffffffffffffffffffffffffffffffffffffff021916908373ffffffffffffffffffffffffffffffffffffffff160217905550346008819055506005543410151561108a5760055460088190555061101c6005543403600a6000600760009054906101000a900473ffffffffffffffffffffffffffffffffffffffff1673ffffffffffffffffffffffffffffffffffffffff1673ffffffffffffffffffffffffffffffffffffffff168152602001908152602001600020546113cc90919063ffffffff16565b600a6000600760009054906101000a900473ffffffffffffffffffffffffffffffffffffffff1673ffffffffffffffffffffffffffffffffffffffff1673ffffffffffffffffffffffffffffffffffffffff168152602001908152602001600020819055506110896113e8565b5b7ff4757a49b326036464bec6fe419a4ae38c8a02ce3e68bf0809674f6aab8ad300600760009054906101000a900473ffffffffffffffffffffffffffffffffffffffff16600854604051808373ffffffffffffffffffffffffffffffffffffffff1673ffffffffffffffffffffffffffffffffffffffff1681526020018281526020019250505060405180910390a1565b60045481565b600a6020528060005260406000206000915090505481565b6000809054906101000a900473ffffffffffffffffffffffffffffffffffffffff1673ffffffffffffffffffffffffffffffffffffffff163373ffffffffffffffffffffffffffffffffffffffff1614151561119457600080fd5b600960009054906101000a900460ff16151515611219576040517f08c379a00000000000000000000000000000000000000000000000000000000081526004018080602001828103825260128152602001807f41756374696f6e2068617320656e6465642e000000000000000000000000000081525060200191505060405180910390fd5b60035442101515156112b9576040517f08c379a00000000000000000000000000000000000000000000000000000000081526004018080602001828103825260268152602001807f41756374696f6e20656e642074696d6520686173206e6f74206265656e20726581526020017f61636865642e000000000000000000000000000000000000000000000000000081525060400191505060405180910390fd5b6001600960006101000a81548160ff021916908315150217905550600854600a60008060009054906101000a900473ffffffffffffffffffffffffffffffffffffffff1673ffffffffffffffffffffffffffffffffffffffff1673ffffffffffffffffffffffffffffffffffffffff168152602001908152602001600020819055507fdaec4582d5d9595688c8c98545fdd1c696d41c6aeaeb636737e84ed2f5c00eda600760009054906101000a900473ffffffffffffffffffffffffffffffffffffffff16600854604051808373ffffffffffffffffffffffffffffffffffffffff1673ffffffffffffffffffffffffffffffffffffffff1681526020018281526020019250505060405180910390a1565b600081830190508281101515156113df57fe5b80905092915050565b6001600960006101000a81548160ff021916908315150217905550600854600a60008060009054906101000a900473ffffffffffffffffffffffffffffffffffffffff1673ffffffffffffffffffffffffffffffffffffffff1673ffffffffffffffffffffffffffffffffffffffff168152602001908152602001600020819055507fdaec4582d5d9595688c8c98545fdd1c696d41c6aeaeb636737e84ed2f5c00eda600760009054906101000a900473ffffffffffffffffffffffffffffffffffffffff16600854604051808373ffffffffffffffffffffffffffffffffffffffff1673ffffffffffffffffffffffffffffffffffffffff1681526020018281526020019250505060405180910390a15600a165627a7a723058202b269addafa917fe46861d4bc64f8c11da3a7d28d0e4b7ec623ed261f2a701d80029",
  "source": "pragma solidity ^0.4.24;\r\n\r\nimport \"./SafeMath.sol\";\r\n\r\ncontract Auction {\r\n    \r\n    // OpenZeppelin SafeMath \r\n    using SafeMath for uint256;\r\n    \r\n    // Variables\r\n    address public owner; // The owner is the seller of the item\r\n    string public itemName;\r\n    enum Conditions {BrandNew, LikeNew, VeryGood, Good, Acceptable}\r\n    Conditions public condition;\r\n    uint public auctionEndTime; // Auction end time is calculated using the unix timestamp\r\n    uint public startPrice; // Minimum bid price\r\n    uint public buyPrice; // \"Buy it now\" price\r\n    uint public bidCount;\r\n    address public highestBidder;\r\n    uint public highestBid;\r\n    bool public ended; // Tracks whether the auction has ended\r\n    mapping(address => uint) public pendingWithdrawals;\r\n    \r\n    // Events\r\n    event AuctionStarted(string bidItem);\r\n    event AuctionEnded(address winner, uint winningAmount);\r\n    event HighestBidIncreased(address bidder, uint bidAmount);  \r\n    event AuctionCancelled();\r\n    event Withdrawal(string message, address withdrawAccount, uint withdrawAmount);\r\n    \r\n    // Checks if it's the owner of the contract\r\n    modifier ownerOnly() {\r\n        require(msg.sender == owner);\r\n        _;\r\n    }\r\n    \r\n    // Checks that the auction is active\r\n    modifier isActive() {\r\n        require(!ended, \"Auction has already ended.\");\r\n        require(now < auctionEndTime, \"Auction end time has already been reached.\");\r\n        _;\r\n    }\r\n    \r\n    // Initialises the contract along with its variables\r\n    constructor(string _itemName, Conditions _condition, uint _durationMinutes, uint _startPrice, uint _buyPrice) public { \r\n        require(_durationMinutes > 0, \"Duration must be above 0.\");\r\n        require(_startPrice >= 0 && _buyPrice > 0, \"Start and buy price must be above 0.\"); \r\n        require(_startPrice < _buyPrice, \"Buy price must be higher than the start price.\");\r\n\r\n        owner = msg.sender;\r\n        itemName = _itemName;\r\n        condition = _condition;\r\n        startPrice = _startPrice;\r\n        buyPrice = _buyPrice;\r\n        auctionEndTime = now + (_durationMinutes * 1 minutes);\r\n\r\n        emit AuctionStarted(itemName);\r\n    }\r\n    \r\n    // Placing a bid\r\n    function placeBid() public payable isActive {  \r\n        require(msg.sender != owner, \"Bidding on your own items is NOT allowed.\");\r\n        require(msg.value >= startPrice && msg.value > highestBid, \"Bid price is too low.\");\r\n        \r\n        bidCount++;\r\n        \r\n        // If a bid already exists then add it to the pending withdrawals\r\n        if(highestBid != 0) {\r\n            pendingWithdrawals[highestBidder] = pendingWithdrawals[highestBidder].add(highestBid);\r\n        }\r\n        \r\n        // Update the new highest bidder and bid price\r\n        highestBidder = msg.sender;\r\n        highestBid = msg.value;\r\n        \r\n        // Triggers the \"buy it now\" condition\r\n        if(msg.value >= buyPrice) {\r\n            highestBid = buyPrice;\r\n\r\n            // Refund the difference if the bid placed is higher than the buy price\r\n            pendingWithdrawals[highestBidder] = pendingWithdrawals[highestBidder].add(msg.value - buyPrice);\r\n            itemBought();\r\n        }\r\n        emit HighestBidIncreased(highestBidder, highestBid);\r\n    }\r\n    \r\n    // End the auction\r\n    function endAuction() public ownerOnly {\r\n        require(!ended, \"Auction has ended.\");\r\n        require(now >= auctionEndTime, \"Auction end time has not been reached.\");\r\n        ended = true;\r\n        pendingWithdrawals[owner] = highestBid;\r\n        emit AuctionEnded(highestBidder, highestBid);\r\n    }\r\n    \r\n    // Item bought\r\n    function itemBought() private {\r\n        ended = true;\r\n        pendingWithdrawals[owner] = highestBid;\r\n        emit AuctionEnded(highestBidder, highestBid);    \r\n    }\r\n    \r\n    // Cancel the auction\r\n    function cancelAuction() public ownerOnly isActive {\r\n        pendingWithdrawals[highestBidder] = pendingWithdrawals[highestBidder].add(highestBid);\r\n        ended = true;\r\n        emit AuctionCancelled();\r\n    }\r\n    \r\n    // Lets the user withdraw funds by themselves\r\n    function withdraw() public returns (bool) {\r\n        \r\n        uint amount = pendingWithdrawals[msg.sender];\r\n        \r\n        // Checks if sender has any pending withdrawals\r\n        if(amount > 0) {\r\n            pendingWithdrawals[msg.sender] = 0;\r\n            if(!msg.sender.send(amount)) {\r\n                // In case the withdraw fails\r\n                pendingWithdrawals[msg.sender] = amount;\r\n                emit Withdrawal(\"Failed\", msg.sender, amount);\r\n                return false;\r\n            }\r\n        }\r\n        emit Withdrawal(\"Completed\", msg.sender, amount);\r\n        return true;\r\n    }\r\n    \r\n    // Get the time remaining for the auction (in seconds)\r\n    function timeRemaining() public view isActive returns (uint) {\r\n        return auctionEndTime - now;\r\n    }\r\n}",
  "sourcePath": "D:\\EthereumProjects\\decentralized-auction\\contracts\\Auction.sol",
  "compiler": {
    "name": "solc",
    "version": "0.4.24+commit.e67f0147.Emscripten.clang"
  },
  "schemaVersion": "2.0.1",
  "updatedAt": "2018-07-08T18:48:16.251Z"
}